{
  "_format": "hh-sol-artifact-1",
  "contractName": "MockUSDT",
  "sourceName": "contracts/MockUSDT.sol",
  "abi": [
    {
      "inputs": [],
      "stateMutability": "nonpayable",
      "type": "constructor"
    },
    {
      "anonymous": false,
      "inputs": [
        {
          "indexed": true,
          "internalType": "address",
          "name": "owner",
          "type": "address"
        },
        {
          "indexed": true,
          "internalType": "address",
          "name": "spender",
          "type": "address"
        },
        {
          "indexed": false,
          "internalType": "uint256",
          "name": "value",
          "type": "uint256"
        }
      ],
      "name": "Approval",
      "type": "event"
    },
    {
      "anonymous": false,
      "inputs": [
        {
          "indexed": true,
          "internalType": "address",
          "name": "to",
          "type": "address"
        },
        {
          "indexed": false,
          "internalType": "uint256",
          "name": "amount",
          "type": "uint256"
        }
      ],
      "name": "FaucetRequested",
      "type": "event"
    },
    {
      "anonymous": false,
      "inputs": [
        {
          "indexed": true,
          "internalType": "address",
          "name": "previousOwner",
          "type": "address"
        },
        {
          "indexed": true,
          "internalType": "address",
          "name": "newOwner",
          "type": "address"
        }
      ],
      "name": "OwnershipTransferred",
      "type": "event"
    },
    {
      "anonymous": false,
      "inputs": [
        {
          "indexed": true,
          "internalType": "address",
          "name": "from",
          "type": "address"
        },
        {
          "indexed": true,
          "internalType": "address",
          "name": "to",
          "type": "address"
        },
        {
          "indexed": false,
          "internalType": "uint256",
          "name": "value",
          "type": "uint256"
        }
      ],
      "name": "Transfer",
      "type": "event"
    },
    {
      "inputs": [],
      "name": "FAUCET_AMOUNT",
      "outputs": [
        {
          "internalType": "uint256",
          "name": "",
          "type": "uint256"
        }
      ],
      "stateMutability": "view",
      "type": "function"
    },
    {
      "inputs": [],
      "name": "FAUCET_COOLDOWN",
      "outputs": [
        {
          "internalType": "uint256",
          "name": "",
          "type": "uint256"
        }
      ],
      "stateMutability": "view",
      "type": "function"
    },
    {
      "inputs": [
        {
          "internalType": "address",
          "name": "owner",
          "type": "address"
        },
        {
          "internalType": "address",
          "name": "spender",
          "type": "address"
        }
      ],
      "name": "allowance",
      "outputs": [
        {
          "internalType": "uint256",
          "name": "",
          "type": "uint256"
        }
      ],
      "stateMutability": "view",
      "type": "function"
    },
    {
      "inputs": [
        {
          "internalType": "address",
          "name": "spender",
          "type": "address"
        },
        {
          "internalType": "uint256",
          "name": "amount",
          "type": "uint256"
        }
      ],
      "name": "approve",
      "outputs": [
        {
          "internalType": "bool",
          "name": "",
          "type": "bool"
        }
      ],
      "stateMutability": "nonpayable",
      "type": "function"
    },
    {
      "inputs": [
        {
          "internalType": "address",
          "name": "account",
          "type": "address"
        }
      ],
      "name": "balanceOf",
      "outputs": [
        {
          "internalType": "uint256",
          "name": "",
          "type": "uint256"
        }
      ],
      "stateMutability": "view",
      "type": "function"
    },
    {
      "inputs": [],
      "name": "decimals",
      "outputs": [
        {
          "internalType": "uint8",
          "name": "",
          "type": "uint8"
        }
      ],
      "stateMutability": "pure",
      "type": "function"
    },
    {
      "inputs": [
        {
          "internalType": "address",
          "name": "spender",
          "type": "address"
        },
        {
          "internalType": "uint256",
          "name": "subtractedValue",
          "type": "uint256"
        }
      ],
      "name": "decreaseAllowance",
      "outputs": [
        {
          "internalType": "bool",
          "name": "",
          "type": "bool"
        }
      ],
      "stateMutability": "nonpayable",
      "type": "function"
    },
    {
      "inputs": [
        {
          "internalType": "address",
          "name": "spender",
          "type": "address"
        },
        {
          "internalType": "uint256",
          "name": "addedValue",
          "type": "uint256"
        }
      ],
      "name": "increaseAllowance",
      "outputs": [
        {
          "internalType": "bool",
          "name": "",
          "type": "bool"
        }
      ],
      "stateMutability": "nonpayable",
      "type": "function"
    },
    {
      "inputs": [
        {
          "internalType": "address",
          "name": "",
          "type": "address"
        }
      ],
      "name": "lastFaucetAt",
      "outputs": [
        {
          "internalType": "uint256",
          "name": "",
          "type": "uint256"
        }
      ],
      "stateMutability": "view",
      "type": "function"
    },
    {
      "inputs": [
        {
          "internalType": "address",
          "name": "to",
          "type": "address"
        },
        {
          "internalType": "uint256",
          "name": "amount",
          "type": "uint256"
        }
      ],
      "name": "mint",
      "outputs": [],
      "stateMutability": "nonpayable",
      "type": "function"
    },
    {
      "inputs": [],
      "name": "name",
      "outputs": [
        {
          "internalType": "string",
          "name": "",
          "type": "string"
        }
      ],
      "stateMutability": "view",
      "type": "function"
    },
    {
      "inputs": [
        {
          "internalType": "address",
          "name": "account",
          "type": "address"
        }
      ],
      "name": "nextFaucetAt",
      "outputs": [
        {
          "internalType": "uint256",
          "name": "",
          "type": "uint256"
        }
      ],
      "stateMutability": "view",
      "type": "function"
    },
    {
      "inputs": [],
      "name": "owner",
      "outputs": [
        {
          "internalType": "address",
          "name": "",
          "type": "address"
        }
      ],
      "stateMutability": "view",
      "type": "function"
    },
    {
      "inputs": [],
      "name": "renounceOwnership",
      "outputs": [],
      "stateMutability": "nonpayable",
      "type": "function"
    },
    {
      "inputs": [],
      "name": "requestFaucet",
      "outputs": [],
      "stateMutability": "nonpayable",
      "type": "function"
    },
    {
      "inputs": [],
      "name": "symbol",
      "outputs": [
        {
          "internalType": "string",
          "name": "",
          "type": "string"
        }
      ],
      "stateMutability": "view",
      "type": "function"
    },
    {
      "inputs": [],
      "name": "totalSupply",
      "outputs": [
        {
          "internalType": "uint256",
          "name": "",
          "type": "uint256"
        }
      ],
      "stateMutability": "view",
      "type": "function"
    },
    {
      "inputs": [
        {
          "internalType": "address",
          "name": "to",
          "type": "address"
        },
        {
          "internalType": "uint256",
          "name": "amount",
          "type": "uint256"
        }
      ],
      "name": "transfer",
      "outputs": [
        {
          "internalType": "bool",
          "name": "",
          "type": "bool"
        }
      ],
      "stateMutability": "nonpayable",
      "type": "function"
    },
    {
      "inputs": [
        {
          "internalType": "address",
          "name": "from",
          "type": "address"
        },
        {
          "internalType": "address",
          "name": "to",
          "type": "address"
        },
        {
          "internalType": "uint256",
          "name": "amount",
          "type": "uint256"
        }
      ],
      "name": "transferFrom",
      "outputs": [
        {
          "internalType": "bool",
          "name": "",
          "type": "bool"
        }
      ],
      "stateMutability": "nonpayable",
      "type": "function"
    },
    {
      "inputs": [
        {
          "internalType": "address",
          "name": "newOwner",
          "type": "address"
        }
      ],
      "name": "transferOwnership",
      "outputs": [],
      "stateMutability": "nonpayable",
      "type": "function"
    }
  ],
  "bytecode": "0x60806040523480156200001157600080fd5b5060405180604001604052806009815260200168135bd8dac81554d11560ba1b815250604051806040016040528060048152602001631554d11560e21b81525081600390816200006291906200018f565b5060046200007182826200018f565b5050506200008e620000886200009460201b60201c565b62000098565b6200025b565b3390565b600580546001600160a01b038381166001600160a01b0319831681179093556040519116919082907f8be0079c531659141344cd1fd0a4f28419497f9722a3daafe3b4186f6b6457e090600090a35050565b634e487b7160e01b600052604160045260246000fd5b600181811c908216806200011557607f821691505b6020821081036200013657634e487b7160e01b600052602260045260246000fd5b50919050565b601f8211156200018a57600081815260208120601f850160051c81016020861015620001655750805b601f850160051c820191505b81811015620001865782815560010162000171565b5050505b505050565b81516001600160401b03811115620001ab57620001ab620000ea565b620001c381620001bc845462000100565b846200013c565b602080601f831160018114620001fb5760008415620001e25750858301515b600019600386901b1c1916600185901b17855562000186565b600085815260208120601f198616915b828110156200022c578886015182559484019460019091019084016200020b565b50858210156200024b5787850151600019600388901b60f8161c191681555b5050505050600190811b01905550565b610d5b806200026b6000396000f3fe608060405234801561001057600080fd5b506004361061012c5760003560e01c8063715018a6116100ad578063a457c2d711610071578063a457c2d71461026b578063a9059cbb1461027e578063b8664f5914610291578063dd62ed3e14610299578063f2fde38b146102ac57600080fd5b8063715018a61461022a57806376697640146102325780637d1d5d191461023e5780638da5cb5b1461024857806395d89b411461026357600080fd5b8063313ce567116100f4578063313ce567146101b757806339509351146101c657806340c10f19146101d95780635dff2121146101ee57806370a082311461020157600080fd5b806306fdde0314610131578063095ea7b31461014f57806318160ddd1461017257806323b872dd146101845780632681616e14610197575b600080fd5b6101396102bf565b6040516101469190610ba5565b60405180910390f35b61016261015d366004610c0f565b610351565b6040519015158152602001610146565b6002545b604051908152602001610146565b610162610192366004610c39565b61036b565b6101766101a5366004610c75565b60066020526000908152604090205481565b60405160068152602001610146565b6101626101d4366004610c0f565b61038f565b6101ec6101e7366004610c0f565b6103b1565b005b6101766101fc366004610c75565b610463565b61017661020f366004610c75565b6001600160a01b031660009081526020819052604090205490565b6101ec61048a565b6101766402540be40081565b6101766201518081565b6005546040516001600160a01b039091168152602001610146565b61013961049e565b610162610279366004610c0f565b6104ad565b61016261028c366004610c0f565b610528565b6101ec610536565b6101766102a7366004610c97565b610654565b6101ec6102ba366004610c75565b61067f565b6060600380546102ce90610cca565b80601f01602080910402602001604051908101604052809291908181526020018280546102fa90610cca565b80156103475780601f1061031c57610100808354040283529160200191610347565b820191906000526020600020905b81548152906001019060200180831161032a57829003601f168201915b5050505050905090565b60003361035f8185856106f8565b60019150505b92915050565b60003361037985828561081c565b610384858585610896565b506001949350505050565b60003361035f8185856103a28383610654565b6103ac9190610d04565b6106f8565b6103b9610a3a565b6001600160a01b03821661040d5760405162461bcd60e51b81526020600482015260166024820152754d6f636b555344543a206d696e7420746f207a65726f60501b60448201526064015b60405180910390fd5b600081116104555760405162461bcd60e51b8152602060048201526015602482015274135bd8dad554d1150e881e995c9bc8185b5bdd5b9d605a1b6044820152606401610404565b61045f8282610a94565b5050565b6001600160a01b038116600090815260066020526040812054610365906201518090610d04565b610492610a3a565b61049c6000610b53565b565b6060600480546102ce90610cca565b600033816104bb8286610654565b90508381101561051b5760405162461bcd60e51b815260206004820152602560248201527f45524332303a2064656372656173656420616c6c6f77616e63652062656c6f77604482015264207a65726f60d81b6064820152608401610404565b61038482868684036106f8565b60003361035f818585610896565b33600090815260066020526040902054610554906201518090610d04565b4210156105985760405162461bcd60e51b815260206004820152601260248201527126b7b1b5aaa9a22a1d1031b7b7b63237bbb760711b6044820152606401610404565b306000908152602081905260409020546402540be40011156105f55760405162461bcd60e51b81526020600482015260166024820152754d6f636b555344543a2066617563657420656d70747960501b6044820152606401610404565b3360008181526006602052604090204290556106189030906402540be400610896565b6040516402540be400815233907f47d221e80f9733f6ccf2fb6be3e589a5c90e74df557cee6b65e305dd9e4bb3a09060200160405180910390a2565b6001600160a01b03918216600090815260016020908152604080832093909416825291909152205490565b610687610a3a565b6001600160a01b0381166106ec5760405162461bcd60e51b815260206004820152602660248201527f4f776e61626c653a206e6577206f776e657220697320746865207a65726f206160448201526564647265737360d01b6064820152608401610404565b6106f581610b53565b50565b6001600160a01b03831661075a5760405162461bcd60e51b8152602060048201526024808201527f45524332303a20617070726f76652066726f6d20746865207a65726f206164646044820152637265737360e01b6064820152608401610404565b6001600160a01b0382166107bb5760405162461bcd60e51b815260206004820152602260248201527f45524332303a20617070726f766520746f20746865207a65726f206164647265604482015261737360f01b6064820152608401610404565b6001600160a01b0383811660008181526001602090815260408083209487168084529482529182902085905590518481527f8c5be1e5ebec7d5bd14f71427d1e84f3dd0314c0f7b2291e5b200ac8c7c3b925910160405180910390a3505050565b60006108288484610654565b9050600019811461089057818110156108835760405162461bcd60e51b815260206004820152601d60248201527f45524332303a20696e73756666696369656e7420616c6c6f77616e63650000006044820152606401610404565b61089084848484036106f8565b50505050565b6001600160a01b0383166108fa5760405162461bcd60e51b815260206004820152602560248201527f45524332303a207472616e736665722066726f6d20746865207a65726f206164604482015264647265737360d81b6064820152608401610404565b6001600160a01b03821661095c5760405162461bcd60e51b815260206004820152602360248201527f45524332303a207472616e7366657220746f20746865207a65726f206164647260448201526265737360e81b6064820152608401610404565b6001600160a01b038316600090815260208190526040902054818110156109d45760405162461bcd60e51b815260206004820152602660248201527f45524332303a207472616e7366657220616d6f756e7420657863656564732062604482015265616c616e636560d01b6064820152608401610404565b6001600160a01b03848116600081815260208181526040808320878703905593871680835291849020805487019055925185815290927fddf252ad1be2c89b69c2b068fc378daa952ba7f163c4a11628f55a4df523b3ef910160405180910390a3610890565b6005546001600160a01b0316331461049c5760405162461bcd60e51b815260206004820181905260248201527f4f776e61626c653a2063616c6c6572206973206e6f7420746865206f776e65726044820152606401610404565b6001600160a01b038216610aea5760405162461bcd60e51b815260206004820152601f60248201527f45524332303a206d696e7420746f20746865207a65726f2061646472657373006044820152606401610404565b8060026000828254610afc9190610d04565b90915550506001600160a01b038216600081815260208181526040808320805486019055518481527fddf252ad1be2c89b69c2b068fc378daa952ba7f163c4a11628f55a4df523b3ef910160405180910390a35050565b600580546001600160a01b038381166001600160a01b0319831681179093556040519116919082907f8be0079c531659141344cd1fd0a4f28419497f9722a3daafe3b4186f6b6457e090600090a35050565b600060208083528351808285015260005b81811015610bd257858101830151858201604001528201610bb6565b506000604082860101526040601f19601f8301168501019250505092915050565b80356001600160a01b0381168114610c0a57600080fd5b919050565b60008060408385031215610c2257600080fd5b610c2b83610bf3565b946020939093013593505050565b600080600060608486031215610c4e57600080fd5b610c5784610bf3565b9250610c6560208501610bf3565b9150604084013590509250925092565b600060208284031215610c8757600080fd5b610c9082610bf3565b9392505050565b60008060408385031215610caa57600080fd5b610cb383610bf3565b9150610cc160208401610bf3565b90509250929050565b600181811c90821680610cde57607f821691505b602082108103610cfe57634e487b7160e01b600052602260045260246000fd5b50919050565b8082018082111561036557634e487b7160e01b600052601160045260246000fdfea264697066735822122080c8fedcaa33159643363a621b694f3e1ca9633525009507320b8774df6e482e64736f6c63430008140033",
  "linkReferences": {},
  "deployedLinkReferences": {}
}