{
  "_format": "hh-sol-artifact-1",
  "contractName": "CircuitRegistry",
  "sourceName": "contracts/CircuitRegistry.sol",
  "abi": [
    {
      "anonymous": false,
      "inputs": [
        {
          "indexed": true,
          "internalType": "bytes32",
          "name": "agentId",
          "type": "bytes32"
        }
      ],
      "name": "AgentDeactivated",
      "type": "event"
    },
    {
      "anonymous": false,
      "inputs": [
        {
          "indexed": true,
          "internalType": "bytes32",
          "name": "agentId",
          "type": "bytes32"
        },
        {
          "indexed": true,
          "internalType": "address",
          "name": "wallet",
          "type": "address"
        },
        {
          "indexed": true,
          "internalType": "address",
          "name": "operator",
          "type": "address"
        },
        {
          "indexed": false,
          "internalType": "uint256",
          "name": "creditLimit",
          "type": "uint256"
        },
        {
          "indexed": false,
          "internalType": "uint8",
          "name": "riskTier",
          "type": "uint8"
        }
      ],
      "name": "AgentRegistered",
      "type": "event"
    },
    {
      "anonymous": false,
      "inputs": [
        {
          "indexed": true,
          "internalType": "bytes32",
          "name": "agentId",
          "type": "bytes32"
        },
        {
          "indexed": false,
          "internalType": "uint256",
          "name": "newLimit",
          "type": "uint256"
        }
      ],
      "name": "CreditLimitUpdated",
      "type": "event"
    },
    {
      "inputs": [
        {
          "internalType": "address",
          "name": "",
          "type": "address"
        }
      ],
      "name": "agentIdByWallet",
      "outputs": [
        {
          "internalType": "bytes32",
          "name": "",
          "type": "bytes32"
        }
      ],
      "stateMutability": "view",
      "type": "function"
    },
    {
      "inputs": [
        {
          "internalType": "address",
          "name": "",
          "type": "address"
        },
        {
          "internalType": "uint256",
          "name": "",
          "type": "uint256"
        }
      ],
      "name": "agentIdsByOperator",
      "outputs": [
        {
          "internalType": "bytes32",
          "name": "",
          "type": "bytes32"
        }
      ],
      "stateMutability": "view",
      "type": "function"
    },
    {
      "inputs": [
        {
          "internalType": "bytes32",
          "name": "",
          "type": "bytes32"
        }
      ],
      "name": "agentsById",
      "outputs": [
        {
          "internalType": "address",
          "name": "wallet",
          "type": "address"
        },
        {
          "internalType": "address",
          "name": "operator",
          "type": "address"
        },
        {
          "internalType": "uint256",
          "name": "creditLimit",
          "type": "uint256"
        },
        {
          "internalType": "uint256",
          "name": "drawn",
          "type": "uint256"
        },
        {
          "internalType": "uint8",
          "name": "riskTier",
          "type": "uint8"
        },
        {
          "internalType": "bool",
          "name": "active",
          "type": "bool"
        },
        {
          "internalType": "uint256",
          "name": "registeredAt",
          "type": "uint256"
        }
      ],
      "stateMutability": "view",
      "type": "function"
    },
    {
      "inputs": [
        {
          "internalType": "bytes32",
          "name": "agentId",
          "type": "bytes32"
        }
      ],
      "name": "deactivate",
      "outputs": [],
      "stateMutability": "nonpayable",
      "type": "function"
    },
    {
      "inputs": [
        {
          "internalType": "bytes32",
          "name": "agentId",
          "type": "bytes32"
        }
      ],
      "name": "getAgent",
      "outputs": [
        {
          "internalType": "address",
          "name": "wallet",
          "type": "address"
        },
        {
          "internalType": "address",
          "name": "operator",
          "type": "address"
        },
        {
          "internalType": "uint256",
          "name": "creditLimit",
          "type": "uint256"
        },
        {
          "internalType": "uint256",
          "name": "drawn",
          "type": "uint256"
        },
        {
          "internalType": "uint8",
          "name": "riskTier",
          "type": "uint8"
        },
        {
          "internalType": "bool",
          "name": "active",
          "type": "bool"
        }
      ],
      "stateMutability": "view",
      "type": "function"
    },
    {
      "inputs": [
        {
          "internalType": "address",
          "name": "operator",
          "type": "address"
        }
      ],
      "name": "getAgentIdsByOperator",
      "outputs": [
        {
          "internalType": "bytes32[]",
          "name": "",
          "type": "bytes32[]"
        }
      ],
      "stateMutability": "view",
      "type": "function"
    },
    {
      "inputs": [],
      "name": "nextAgentNonce",
      "outputs": [
        {
          "internalType": "uint256",
          "name": "",
          "type": "uint256"
        }
      ],
      "stateMutability": "view",
      "type": "function"
    },
    {
      "inputs": [],
      "name": "pool",
      "outputs": [
        {
          "internalType": "address",
          "name": "",
          "type": "address"
        }
      ],
      "stateMutability": "view",
      "type": "function"
    },
    {
      "inputs": [
        {
          "internalType": "address",
          "name": "agentWallet",
          "type": "address"
        },
        {
          "internalType": "uint256",
          "name": "creditLimit",
          "type": "uint256"
        },
        {
          "internalType": "uint8",
          "name": "riskTier",
          "type": "uint8"
        }
      ],
      "name": "registerAgent",
      "outputs": [
        {
          "internalType": "bytes32",
          "name": "agentId",
          "type": "bytes32"
        }
      ],
      "stateMutability": "nonpayable",
      "type": "function"
    },
    {
      "inputs": [
        {
          "internalType": "bytes32",
          "name": "agentId",
          "type": "bytes32"
        },
        {
          "internalType": "uint256",
          "name": "newLimit",
          "type": "uint256"
        }
      ],
      "name": "setCreditLimit",
      "outputs": [],
      "stateMutability": "nonpayable",
      "type": "function"
    },
    {
      "inputs": [
        {
          "internalType": "address",
          "name": "_pool",
          "type": "address"
        }
      ],
      "name": "setPool",
      "outputs": [],
      "stateMutability": "nonpayable",
      "type": "function"
    },
    {
      "inputs": [
        {
          "internalType": "address",
          "name": "",
          "type": "address"
        }
      ],
      "name": "totalDrawnByOperator",
      "outputs": [
        {
          "internalType": "uint256",
          "name": "",
          "type": "uint256"
        }
      ],
      "stateMutability": "view",
      "type": "function"
    },
    {
      "inputs": [
        {
          "internalType": "bytes32",
          "name": "agentId",
          "type": "bytes32"
        },
        {
          "internalType": "uint256",
          "name": "addDrawn",
          "type": "uint256"
        }
      ],
      "name": "updateDrawn",
      "outputs": [],
      "stateMutability": "nonpayable",
      "type": "function"
    },
    {
      "inputs": [
        {
          "internalType": "bytes32",
          "name": "agentId",
          "type": "bytes32"
        },
        {
          "internalType": "uint256",
          "name": "repaid",
          "type": "uint256"
        }
      ],
      "name": "updateRepaid",
      "outputs": [],
      "stateMutability": "nonpayable",
      "type": "function"
    }
  ],
  "bytecode": "0x608060405234801561001057600080fd5b50610c9e806100206000396000f3fe608060405234801561001057600080fd5b50600436106100ea5760003560e01c80636a42ed591161008c578063d4f37fa711610066578063d4f37fa714610263578063dcc8bd1414610305578063e2e4f22414610325578063f046a1341461033857600080fd5b80636a42ed59146101b257806389f70764146101bb578063a6c2af01146101ce57600080fd5b80632bcb8488116100c85780632bcb8488146101585780633613c65d1461016b5780633c1166f31461018c5780634437152a1461019f57600080fd5b806301da0ef8146100ef57806316f0115b1461011857806322eee84c14610143575b600080fd5b6101026100fd366004610ac5565b610358565b60405161010f9190610ae7565b60405180910390f35b60055461012b906001600160a01b031681565b6040516001600160a01b03909116815260200161010f565b610156610151366004610b2b565b6103c4565b005b610156610166366004610b44565b61043b565b61017e610179366004610b66565b610520565b60405190815260200161010f565b61015661019a366004610b44565b6107f7565b6101566101ad366004610ac5565b61086f565b61017e60045481565b6101566101c9366004610b44565b61094a565b6102266101dc366004610b2b565b600090815260208190526040902080546001820154600283015460038401546004909401546001600160a01b039384169593909216939092909160ff808216926101009092041690565b604080516001600160a01b03978816815296909516602087015293850192909252606084015260ff166080830152151560a082015260c00161010f565b6102c0610271366004610b2b565b6000602081905290815260409020805460018201546002830154600384015460048501546005909501546001600160a01b039485169593909416939192909160ff808316926101009004169087565b604080516001600160a01b03988916815297909616602088015294860193909352606085019190915260ff166080840152151560a083015260c082015260e00161010f565b61017e610313366004610ac5565b60016020526000908152604090205481565b61017e610333366004610bac565b610a78565b61017e610346366004610ac5565b60036020526000908152604090205481565b6001600160a01b0381166000908152600260209081526040918290208054835181840281018401909452808452606093928301828280156103b857602002820191906000526020600020905b8154815260200190600101908083116103a4575b50505050509050919050565b6005546001600160a01b031633146103f75760405162461bcd60e51b81526004016103ee90610bd6565b60405180910390fd5b600081815260208190526040808220600401805461ff00191690555182917f83fa9a5555770ebb043d9ef83dd2d496875b8a91e0b595e5ce06520ba75187ad91a250565b6005546001600160a01b031633146104655760405162461bcd60e51b81526004016103ee90610bd6565b600082815260208190526040902060038101548211156104d15760405162461bcd60e51b815260206004820152602160248201527f4369726375697452656769737472793a207265706179206f76657220647261776044820152603760f91b60648201526084016103ee565b818160030160008282546104e59190610c23565b909155505060018101546001600160a01b031660009081526003602052604081208054849290610516908490610c23565b9091555050505050565b60006001600160a01b0384166105785760405162461bcd60e51b815260206004820152601c60248201527f4369726375697452656769737472793a207a65726f2077616c6c65740000000060448201526064016103ee565b6001600160a01b038416600090815260016020526040902054156105ea5760405162461bcd60e51b815260206004820152602360248201527f4369726375697452656769737472793a20616c726561647920726567697374656044820152621c995960ea1b60648201526084016103ee565b60018260ff1610158015610602575060038260ff1611155b6106595760405162461bcd60e51b815260206004820152602260248201527f4369726375697452656769737472793a20696e76616c6964207269736b20746960448201526132b960f11b60648201526084016103ee565b6004546040516bffffffffffffffffffffffff1933606090811b8216602084015287901b166034820152466048820152606881019190915260880160408051601f1981840301815291905280516020909101206004805491925060006106be83610c3c565b90915550506040805160e0810182526001600160a01b038087168083523360208085018281528587018a815260006060880181815260ff808d1660808b01908152600160a08c018181524260c08e019081528f8752868a528e87209d518e54908e166001600160a01b0319918216178f5598518e8401805491909e16991698909817909b5594516002808d0191909155925160038c01555160048b0180549a5115156101000261ffff19909b169190921617989098179097559151600590970196909655838152858252868120889055828152938152858420805495860181558452909220909201849055915183907fb3408558bd56bfc4e8c3ae3bb8872948086b2b1a09bce19d9ee8148023c1c7d3906107e8908890889091825260ff16602082015260400190565b60405180910390a49392505050565b6005546001600160a01b031633146108215760405162461bcd60e51b81526004016103ee90610bd6565b6000828152602081815260409182902060028101849055915183815284917f1deb1194817c4bfa659fd64d3b9df4bb5aaa5b1315e2a704850a2c73be9fa951910160405180910390a2505050565b6001600160a01b0381166108c55760405162461bcd60e51b815260206004820152601a60248201527f4369726375697452656769737472793a207a65726f20706f6f6c00000000000060448201526064016103ee565b6005546001600160a01b0316156109285760405162461bcd60e51b815260206004820152602160248201527f4369726375697452656769737472793a20706f6f6c20616c72656164792073656044820152601d60fa1b60648201526084016103ee565b600580546001600160a01b0319166001600160a01b0392909216919091179055565b6005546001600160a01b031633146109745760405162461bcd60e51b81526004016103ee90610bd6565b60008281526020819052604090206004810154610100900460ff166109db5760405162461bcd60e51b815260206004820152601960248201527f4369726375697452656769737472793a20696e6163746976650000000000000060448201526064016103ee565b818160030160008282546109ef9190610c55565b9091555050600281015460038201541115610a4c5760405162461bcd60e51b815260206004820152601b60248201527f4369726375697452656769737472793a206f766572206c696d6974000000000060448201526064016103ee565b60018101546001600160a01b031660009081526003602052604081208054849290610516908490610c55565b60026020528160005260406000208181548110610a9457600080fd5b90600052602060002001600091509150505481565b80356001600160a01b0381168114610ac057600080fd5b919050565b600060208284031215610ad757600080fd5b610ae082610aa9565b9392505050565b6020808252825182820181905260009190848201906040850190845b81811015610b1f57835183529284019291840191600101610b03565b50909695505050505050565b600060208284031215610b3d57600080fd5b5035919050565b60008060408385031215610b5757600080fd5b50508035926020909101359150565b600080600060608486031215610b7b57600080fd5b610b8484610aa9565b925060208401359150604084013560ff81168114610ba157600080fd5b809150509250925092565b60008060408385031215610bbf57600080fd5b610bc883610aa9565b946020939093013593505050565b6020808252601a908201527f4369726375697452656769737472793a206f6e6c7920706f6f6c000000000000604082015260600190565b634e487b7160e01b600052601160045260246000fd5b81810381811115610c3657610c36610c0d565b92915050565b600060018201610c4e57610c4e610c0d565b5060010190565b80820180821115610c3657610c36610c0d56fea2646970667358221220224a0974dadd550fa56783d8306ea67521521b392497086f83b4fc0ce2fa2b0364736f6c63430008140033",
  "linkReferences": {},
  "deployedLinkReferences": {}
}