{
  "_format": "hh-sol-artifact-1",
  "contractName": "CircuitPool",
  "sourceName": "contracts/CircuitPool.sol",
  "abi": [
    {
      "inputs": [
        {
          "internalType": "address",
          "name": "_token",
          "type": "address"
        },
        {
          "internalType": "address",
          "name": "_registry",
          "type": "address"
        }
      ],
      "stateMutability": "nonpayable",
      "type": "constructor"
    },
    {
      "anonymous": false,
      "inputs": [
        {
          "indexed": true,
          "internalType": "address",
          "name": "from",
          "type": "address"
        },
        {
          "indexed": false,
          "internalType": "uint256",
          "name": "amount",
          "type": "uint256"
        }
      ],
      "name": "Deposited",
      "type": "event"
    },
    {
      "anonymous": false,
      "inputs": [
        {
          "indexed": true,
          "internalType": "bytes32",
          "name": "agentId",
          "type": "bytes32"
        },
        {
          "indexed": true,
          "internalType": "address",
          "name": "to",
          "type": "address"
        },
        {
          "indexed": false,
          "internalType": "uint256",
          "name": "amount",
          "type": "uint256"
        }
      ],
      "name": "Draw",
      "type": "event"
    },
    {
      "anonymous": false,
      "inputs": [
        {
          "indexed": true,
          "internalType": "bytes32",
          "name": "agentId",
          "type": "bytes32"
        },
        {
          "indexed": true,
          "internalType": "address",
          "name": "from",
          "type": "address"
        },
        {
          "indexed": false,
          "internalType": "uint256",
          "name": "amount",
          "type": "uint256"
        }
      ],
      "name": "Repay",
      "type": "event"
    },
    {
      "inputs": [],
      "name": "MAX_PCT_PER_AGENT",
      "outputs": [
        {
          "internalType": "uint256",
          "name": "",
          "type": "uint256"
        }
      ],
      "stateMutability": "view",
      "type": "function"
    },
    {
      "inputs": [],
      "name": "MAX_PCT_PER_OPERATOR",
      "outputs": [
        {
          "internalType": "uint256",
          "name": "",
          "type": "uint256"
        }
      ],
      "stateMutability": "view",
      "type": "function"
    },
    {
      "inputs": [],
      "name": "PCT_DENOMINATOR",
      "outputs": [
        {
          "internalType": "uint256",
          "name": "",
          "type": "uint256"
        }
      ],
      "stateMutability": "view",
      "type": "function"
    },
    {
      "inputs": [
        {
          "internalType": "uint256",
          "name": "amount",
          "type": "uint256"
        }
      ],
      "name": "deposit",
      "outputs": [],
      "stateMutability": "nonpayable",
      "type": "function"
    },
    {
      "inputs": [
        {
          "internalType": "bytes32",
          "name": "agentId",
          "type": "bytes32"
        },
        {
          "internalType": "address",
          "name": "to",
          "type": "address"
        },
        {
          "internalType": "uint256",
          "name": "amount",
          "type": "uint256"
        }
      ],
      "name": "draw",
      "outputs": [],
      "stateMutability": "nonpayable",
      "type": "function"
    },
    {
      "inputs": [],
      "name": "poolBalance",
      "outputs": [
        {
          "internalType": "uint256",
          "name": "",
          "type": "uint256"
        }
      ],
      "stateMutability": "view",
      "type": "function"
    },
    {
      "inputs": [],
      "name": "registry",
      "outputs": [
        {
          "internalType": "contract CircuitRegistry",
          "name": "",
          "type": "address"
        }
      ],
      "stateMutability": "view",
      "type": "function"
    },
    {
      "inputs": [
        {
          "internalType": "bytes32",
          "name": "agentId",
          "type": "bytes32"
        },
        {
          "internalType": "uint256",
          "name": "amount",
          "type": "uint256"
        }
      ],
      "name": "repay",
      "outputs": [],
      "stateMutability": "nonpayable",
      "type": "function"
    },
    {
      "inputs": [],
      "name": "token",
      "outputs": [
        {
          "internalType": "contract IERC20",
          "name": "",
          "type": "address"
        }
      ],
      "stateMutability": "view",
      "type": "function"
    }
  ],
  "bytecode": "0x60c060405234801561001057600080fd5b5060405161122a38038061122a83398101604081905261002f91610118565b60016000556001600160a01b03821661008f5760405162461bcd60e51b815260206004820152601760248201527f43697263756974506f6f6c3a207a65726f20746f6b656e00000000000000000060448201526064015b60405180910390fd5b6001600160a01b0381166100e55760405162461bcd60e51b815260206004820152601a60248201527f43697263756974506f6f6c3a207a65726f2072656769737472790000000000006044820152606401610086565b6001600160a01b039182166080521660a05261014b565b80516001600160a01b038116811461011357600080fd5b919050565b6000806040838503121561012b57600080fd5b610134836100fc565b9150610142602084016100fc565b90509250929050565b60805160a0516110756101b56000396000818160b101528181610196015281816102fc015281816104cd015281816107e801526108ee0152600081816101490152818161036d015281816103f60152818161069b0152818161095f0152610a1701526110756000f3fe608060405234801561001057600080fd5b50600436106100925760003560e01c80639c6c16e5116100665780639c6c16e51461010e578063b6b55f2514610121578063c4b67dbd14610134578063cae9e8091461013c578063fc0c546a1461014457600080fd5b8062f989ad146100975780637b103999146100ac57806380b1acf5146100f057806396365d4414610106575b600080fd5b6100aa6100a5366004610de0565b61016b565b005b6100d37f000000000000000000000000000000000000000000000000000000000000000081565b6040516001600160a01b0390911681526020015b60405180910390f35b6100f8606481565b6040519081526020016100e7565b6100f86103de565b6100aa61011c366004610e17565b61046e565b6100aa61012f366004610e4f565b6109e2565b6100f8601481565b6100f8600581565b6100d37f000000000000000000000000000000000000000000000000000000000000000081565b610173610a81565b60405163a6c2af0160e01b81526004810183905260009081906001600160a01b037f0000000000000000000000000000000000000000000000000000000000000000169063a6c2af019060240160c060405180830381865afa1580156101dd573d6000803e3d6000fd5b505050506040513d601f19601f820116820180604052508101906102019190610e7d565b5050935050509150816001600160a01b0316336001600160a01b03161461026f5760405162461bcd60e51b815260206004820152601e60248201527f43697263756974506f6f6c3a206f6e6c79206167656e742077616c6c6574000060448201526064015b60405180910390fd5b6000831161028f5760405162461bcd60e51b815260040161026690610ef2565b808311156102df5760405162461bcd60e51b815260206004820152601d60248201527f43697263756974506f6f6c3a207265706179206f76657220647261776e0000006044820152606401610266565b604051630579709160e31b815260048101859052602481018490527f00000000000000000000000000000000000000000000000000000000000000006001600160a01b031690632bcb848890604401600060405180830381600087803b15801561034857600080fd5b505af115801561035c573d6000803e3d6000fd5b506103979250506001600160a01b037f0000000000000000000000000000000000000000000000000000000000000000169050333086610ada565b604051838152339085907f66e44efc4787ba23a95f744ab318a8d2d43dd6c5d9038e02bd6c6ccfa7230d239060200160405180910390a350506103da6001600055565b5050565b6040516370a0823160e01b81523060048201526000907f00000000000000000000000000000000000000000000000000000000000000006001600160a01b0316906370a0823190602401602060405180830381865afa158015610445573d6000803e3d6000fd5b505050506040513d601f19601f820116820180604052508101906104699190610f29565b905090565b610476610a81565b6001600160a01b0382166104c35760405162461bcd60e51b815260206004820152601460248201527343697263756974506f6f6c3a207a65726f20746f60601b6044820152606401610266565b60008060008060007f00000000000000000000000000000000000000000000000000000000000000006001600160a01b031663a6c2af01896040518263ffffffff1660e01b815260040161051991815260200190565b60c060405180830381865afa158015610536573d6000803e3d6000fd5b505050506040513d601f19601f8201168201806040525081019061055a9190610e7d565b9550509450945094509450806105b25760405162461bcd60e51b815260206004820152601b60248201527f43697263756974506f6f6c3a20696e616374697665206167656e7400000000006044820152606401610266565b336001600160a01b0386161461060a5760405162461bcd60e51b815260206004820152601e60248201527f43697263756974506f6f6c3a206f6e6c79206167656e742077616c6c657400006044820152606401610266565b6000861161062a5760405162461bcd60e51b815260040161026690610ef2565b826106358784610f58565b11156106835760405162461bcd60e51b815260206004820152601760248201527f43697263756974506f6f6c3a206f766572206c696d69740000000000000000006044820152606401610266565b6040516370a0823160e01b81523060048201526000907f00000000000000000000000000000000000000000000000000000000000000006001600160a01b0316906370a0823190602401602060405180830381865afa1580156106ea573d6000803e3d6000fd5b505050506040513d601f19601f8201168201806040525081019061070e9190610f29565b9050600081116107605760405162461bcd60e51b815260206004820152601960248201527f43697263756974506f6f6c3a206e6f206c6971756964697479000000000000006044820152606401610266565b606461076d600583610f71565b6107779190610f88565b8711156107c65760405162461bcd60e51b815260206004820152601e60248201527f43697263756974506f6f6c3a206f76657220352520706572206167656e7400006044820152606401610266565b604051633c11a84d60e21b81526001600160a01b0386811660048301526000917f00000000000000000000000000000000000000000000000000000000000000009091169063f046a13490602401602060405180830381865afa158015610831573d6000803e3d6000fd5b505050506040513d601f19601f820116820180604052508101906108559190610f29565b90506064610864601484610f71565b61086e9190610f88565b6108788983610f58565b11156108d15760405162461bcd60e51b815260206004820152602260248201527f43697263756974506f6f6c3a206f7665722032302520706572206f706572617460448201526137b960f11b6064820152608401610266565b60405163227dc1d960e21b8152600481018b9052602481018990527f00000000000000000000000000000000000000000000000000000000000000006001600160a01b0316906389f7076490604401600060405180830381600087803b15801561093a57600080fd5b505af115801561094e573d6000803e3d6000fd5b506109889250506001600160a01b037f00000000000000000000000000000000000000000000000000000000000000001690508a8a610b4b565b886001600160a01b03168a7f0431f0f2ae4915ca30fd2964c2aa5ad803eeffdd1092b6f3d75581b04ce01fc88a6040516109c491815260200190565b60405180910390a3505050505050506109dd6001600055565b505050565b6109ea610a81565b60008111610a0a5760405162461bcd60e51b815260040161026690610ef2565b610a3f6001600160a01b037f000000000000000000000000000000000000000000000000000000000000000016333084610ada565b60405181815233907f2da466a7b24304f47e87fa2e1e5a81b9831ce54fec19055ce277ca2f39ba42c49060200160405180910390a2610a7e6001600055565b50565b600260005403610ad35760405162461bcd60e51b815260206004820152601f60248201527f5265656e7472616e637947756172643a207265656e7472616e742063616c6c006044820152606401610266565b6002600055565b6040516001600160a01b0380851660248301528316604482015260648101829052610b459085906323b872dd60e01b906084015b60408051601f198184030181529190526020810180516001600160e01b03166001600160e01b031990931692909217909152610b7b565b50505050565b6040516001600160a01b0383166024820152604481018290526109dd90849063a9059cbb60e01b90606401610b0e565b6000610bd0826040518060400160405280602081526020017f5361666545524332303a206c6f772d6c6576656c2063616c6c206661696c6564815250856001600160a01b0316610c509092919063ffffffff16565b9050805160001480610bf1575080806020019051810190610bf19190610faa565b6109dd5760405162461bcd60e51b815260206004820152602a60248201527f5361666545524332303a204552433230206f7065726174696f6e20646964206e6044820152691bdd081cdd58d8d9595960b21b6064820152608401610266565b6060610c5f8484600085610c67565b949350505050565b606082471015610cc85760405162461bcd60e51b815260206004820152602660248201527f416464726573733a20696e73756666696369656e742062616c616e636520666f6044820152651c8818d85b1b60d21b6064820152608401610266565b600080866001600160a01b03168587604051610ce49190610ff0565b60006040518083038185875af1925050503d8060008114610d21576040519150601f19603f3d011682016040523d82523d6000602084013e610d26565b606091505b5091509150610d3787838387610d42565b979650505050505050565b60608315610db1578251600003610daa576001600160a01b0385163b610daa5760405162461bcd60e51b815260206004820152601d60248201527f416464726573733a2063616c6c20746f206e6f6e2d636f6e74726163740000006044820152606401610266565b5081610c5f565b610c5f8383815115610dc65781518083602001fd5b8060405162461bcd60e51b8152600401610266919061100c565b60008060408385031215610df357600080fd5b50508035926020909101359150565b6001600160a01b0381168114610a7e57600080fd5b600080600060608486031215610e2c57600080fd5b833592506020840135610e3e81610e02565b929592945050506040919091013590565b600060208284031215610e6157600080fd5b5035919050565b80518015158114610e7857600080fd5b919050565b60008060008060008060c08789031215610e9657600080fd5b8651610ea181610e02565b6020880151909650610eb281610e02565b809550506040870151935060608701519250608087015160ff81168114610ed857600080fd5b9150610ee660a08801610e68565b90509295509295509295565b60208082526018908201527f43697263756974506f6f6c3a207a65726f20616d6f756e740000000000000000604082015260600190565b600060208284031215610f3b57600080fd5b5051919050565b634e487b7160e01b600052601160045260246000fd5b80820180821115610f6b57610f6b610f42565b92915050565b8082028115828204841417610f6b57610f6b610f42565b600082610fa557634e487b7160e01b600052601260045260246000fd5b500490565b600060208284031215610fbc57600080fd5b610fc582610e68565b9392505050565b60005b83811015610fe7578181015183820152602001610fcf565b50506000910152565b60008251611002818460208701610fcc565b9190910192915050565b602081526000825180602084015261102b816040850160208701610fcc565b601f01601f1916919091016040019291505056fea26469706673582212201b736a28c8c5675d9ac0430c255c5f3c7941ef9bb443bf2c0467157f36e31c2d64736f6c63430008140033",
  "linkReferences": {},
  "deployedLinkReferences": {}
}